{
  "contractName": "FloralToken",
  "abi": [
    {
      "inputs": [],
      "payable": false,
      "stateMutability": "nonpayable",
      "type": "constructor"
    },
    {
      "constant": true,
      "inputs": [],
      "name": "totalSupply",
      "outputs": [
        {
          "internalType": "uint256",
          "name": "",
          "type": "uint256"
        }
      ],
      "payable": false,
      "stateMutability": "view",
      "type": "function"
    }
  ],
  "bytecode": "0x6080604052348015600f57600080fd5b50620186a06000819055506084806100286000396000f3fe6080604052348015600f57600080fd5b506004361060285760003560e01c806318160ddd14602d575b600080fd5b60336049565b6040518082815260200191505060405180910390f35b6000548156fea265627a7a72315820a9026496094278aec0786d66ef4febf0300d286b99541abc8e4b72f6ffe2d6fd64736f6c63430005100032",
  "source": "//specify version of solidity \npragma solidity >=0.4.22 <0.9.0;\n\ncontract FloralToken {\n\n    uint public totalSupply;    //state variable\n\n    //constructor\n    constructor() public{\n        totalSupply = 100000;  //100,000\n    }\n}",
  "sourcePath": "/home/chap/FloralToken/contracts/FloralToken.sol",
  "compiler": {
    "name": "solc",
    "version": "0.5.16+commit.9c3226ce.Emscripten.clang"
  },
  "schemaVersion": "3.4.3",
  "updatedAt": "2021-10-02T02:21:44.753Z",
  "networkType": "ethereum",
  "devdoc": {
    "methods": {}
  },
  "userdoc": {
    "methods": {}
  }
}